{
  "_format": "hh-sol-artifact-1",
  "contractName": "DeFi",
  "sourceName": "contracts/DeFi.sol",
  "abi": [
    {
      "inputs": [],
      "stateMutability": "nonpayable",
      "type": "constructor"
    },
    {
      "inputs": [],
      "name": "DAI",
      "outputs": [
        {
          "internalType": "address",
          "name": "",
          "type": "address"
        }
      ],
      "stateMutability": "view",
      "type": "function"
    },
    {
      "inputs": [],
      "name": "USDC",
      "outputs": [
        {
          "internalType": "address",
          "name": "",
          "type": "address"
        }
      ],
      "stateMutability": "view",
      "type": "function"
    },
    {
      "inputs": [
        {
          "internalType": "uint256",
          "name": "amountIn",
          "type": "uint256"
        }
      ],
      "name": "swapDAItoUSDC",
      "outputs": [
        {
          "internalType": "uint256",
          "name": "",
          "type": "uint256"
        }
      ],
      "stateMutability": "nonpayable",
      "type": "function"
    },
    {
      "inputs": [],
      "name": "swapRouter",
      "outputs": [
        {
          "internalType": "contract ISwapRouter",
          "name": "",
          "type": "address"
        }
      ],
      "stateMutability": "view",
      "type": "function"
    }
  ],
  "bytecode": "0x608060405234801561001057600080fd5b5073e592427a0aece92de3edee1f18e0157c058615646000806101000a81548173ffffffffffffffffffffffffffffffffffffffff021916908373ffffffffffffffffffffffffffffffffffffffff16021790555061088d806100746000396000f3fe608060405234801561001057600080fd5b506004361061004c5760003560e01c806389a3027114610051578063c31c9c071461006f578063da750a571461008d578063e0bab4c4146100bd575b600080fd5b6100596100db565b6040516100669190610675565b60405180910390f35b6100776100f3565b60405161008491906106b9565b60405180910390f35b6100a760048036038101906100a291906104ad565b610117565b6040516100b49190610710565b60405180910390f35b6100c56102d8565b6040516100d29190610675565b60405180910390f35b73a0b86991c6218b36c1d19d4a2e9eb0ce3606eb4881565b60008054906101000a900473ffffffffffffffffffffffffffffffffffffffff1681565b600080604051806101000160405280736b175474e89094c44da98b954eedeac495271d0f73ffffffffffffffffffffffffffffffffffffffff16815260200173a0b86991c6218b36c1d19d4a2e9eb0ce3606eb4873ffffffffffffffffffffffffffffffffffffffff168152602001610bb862ffffff1681526020013373ffffffffffffffffffffffffffffffffffffffff16815260200142815260200184815260200160008152602001600073ffffffffffffffffffffffffffffffffffffffff16815250905061021e736b175474e89094c44da98b954eedeac495271d0f60008054906101000a900473ffffffffffffffffffffffffffffffffffffffff16856102f0565b60008060009054906101000a900473ffffffffffffffffffffffffffffffffffffffff1673ffffffffffffffffffffffffffffffffffffffff1663414bf389836040518263ffffffff1660e01b815260040161027a91906106f4565b602060405180830381600087803b15801561029457600080fd5b505af11580156102a8573d6000803e3d6000fd5b505050506040513d601f19601f820116820180604052508101906102cc91906104d6565b90508092505050919050565b736b175474e89094c44da98b954eedeac495271d0f81565b6000808473ffffffffffffffffffffffffffffffffffffffff1663095ea7b360e01b8585604051602401610325929190610690565b604051602081830303815290604052907bffffffffffffffffffffffffffffffffffffffffffffffffffffffff19166020820180517bffffffffffffffffffffffffffffffffffffffffffffffffffffffff838183161783525050505060405161038f919061065e565b6000604051808303816000865af19150503d80600081146103cc576040519150601f19603f3d011682016040523d82523d6000602084013e6103d1565b606091505b50915091508180156103ff57506000815114806103fe5750808060200190518101906103fd9190610484565b5b5b61043e576040517f08c379a0000000000000000000000000000000000000000000000000000000008152600401610435906106d4565b60405180910390fd5b5050505050565b60008151905061045481610829565b92915050565b60008135905061046981610840565b92915050565b60008151905061047e81610840565b92915050565b60006020828403121561049657600080fd5b60006104a484828501610445565b91505092915050565b6000602082840312156104bf57600080fd5b60006104cd8482850161045a565b91505092915050565b6000602082840312156104e857600080fd5b60006104f68482850161046f565b91505092915050565b61050881610752565b82525050565b61051781610752565b82525050565b60006105288261072b565b6105328185610736565b93506105428185602086016107cd565b80840191505092915050565b610557816107a9565b82525050565b600061056a600283610741565b915061057582610800565b602082019050919050565b6101008201600082015161059760008501826104ff565b5060208201516105aa60208501826104ff565b5060408201516105bd6040850182610631565b5060608201516105d060608501826104ff565b5060808201516105e36080850182610640565b5060a08201516105f660a0850182610640565b5060c082015161060960c0850182610640565b5060e082015161061c60e0850182610622565b50505050565b61062b81610770565b82525050565b61063a81610790565b82525050565b6106498161079f565b82525050565b6106588161079f565b82525050565b600061066a828461051d565b915081905092915050565b600060208201905061068a600083018461050e565b92915050565b60006040820190506106a5600083018561050e565b6106b2602083018461064f565b9392505050565b60006020820190506106ce600083018461054e565b92915050565b600060208201905081810360008301526106ed8161055d565b9050919050565b60006101008201905061070a6000830184610580565b92915050565b6000602082019050610725600083018461064f565b92915050565b600081519050919050565b600081905092915050565b600082825260208201905092915050565b600061075d82610770565b9050919050565b60008115159050919050565b600073ffffffffffffffffffffffffffffffffffffffff82169050919050565b600062ffffff82169050919050565b6000819050919050565b60006107b4826107bb565b9050919050565b60006107c682610770565b9050919050565b60005b838110156107eb5780820151818401526020810190506107d0565b838111156107fa576000848401525b50505050565b7f5341000000000000000000000000000000000000000000000000000000000000600082015250565b61083281610764565b811461083d57600080fd5b50565b6108498161079f565b811461085457600080fd5b5056fea264697066735822122071600b11176a2f9e81301da10720c56b2027cf4323d9a75920b898ae38e1115364736f6c63430008040033",
  "linkReferences": {},
  "deployedLinkReferences": {}
}